{
  "_format": "hh-sol-artifact-1",
  "contractName": "AuthorityContract",
  "sourceName": "contracts/authority.sol",
  "abi": [
    {
      "inputs": [],
      "stateMutability": "nonpayable",
      "type": "constructor"
    },
    {
      "anonymous": false,
      "inputs": [
        {
          "indexed": true,
          "internalType": "bytes32",
          "name": "transactionHash",
          "type": "bytes32"
        },
        {
          "indexed": true,
          "internalType": "address",
          "name": "sender",
          "type": "address"
        },
        {
          "indexed": true,
          "internalType": "address",
          "name": "recipient",
          "type": "address"
        },
        {
          "indexed": false,
          "internalType": "uint256",
          "name": "amount",
          "type": "uint256"
        }
      ],
      "name": "RecipientRefunded",
      "type": "event"
    },
    {
      "anonymous": false,
      "inputs": [
        {
          "indexed": false,
          "internalType": "address",
          "name": "_from",
          "type": "address"
        },
        {
          "indexed": false,
          "internalType": "uint256",
          "name": "_collateral",
          "type": "uint256"
        }
      ],
      "name": "UserAddDeposit",
      "type": "event"
    },
    {
      "anonymous": false,
      "inputs": [
        {
          "indexed": false,
          "internalType": "address",
          "name": "_from",
          "type": "address"
        },
        {
          "indexed": false,
          "internalType": "uint256",
          "name": "_collateral",
          "type": "uint256"
        }
      ],
      "name": "UserRegistered",
      "type": "event"
    },
    {
      "inputs": [],
      "name": "addDepositUser",
      "outputs": [],
      "stateMutability": "payable",
      "type": "function"
    },
    {
      "inputs": [
        {
          "internalType": "address",
          "name": "recipientAddress",
          "type": "address"
        }
      ],
      "name": "isRecipientRegistered",
      "outputs": [
        {
          "internalType": "bool",
          "name": "",
          "type": "bool"
        },
        {
          "internalType": "uint256",
          "name": "",
          "type": "uint256"
        }
      ],
      "stateMutability": "view",
      "type": "function"
    },
    {
      "inputs": [],
      "name": "minDepositAmount",
      "outputs": [
        {
          "internalType": "uint256",
          "name": "",
          "type": "uint256"
        }
      ],
      "stateMutability": "view",
      "type": "function"
    },
    {
      "inputs": [],
      "name": "owner",
      "outputs": [
        {
          "internalType": "address",
          "name": "",
          "type": "address"
        }
      ],
      "stateMutability": "view",
      "type": "function"
    },
    {
      "inputs": [
        {
          "internalType": "bytes32",
          "name": "",
          "type": "bytes32"
        }
      ],
      "name": "processedFailedTransactions",
      "outputs": [
        {
          "internalType": "bool",
          "name": "",
          "type": "bool"
        }
      ],
      "stateMutability": "view",
      "type": "function"
    },
    {
      "inputs": [
        {
          "internalType": "address",
          "name": "",
          "type": "address"
        }
      ],
      "name": "recipients",
      "outputs": [
        {
          "internalType": "bool",
          "name": "exists",
          "type": "bool"
        },
        {
          "internalType": "uint256",
          "name": "withdrawAmount",
          "type": "uint256"
        }
      ],
      "stateMutability": "view",
      "type": "function"
    },
    {
      "inputs": [
        {
          "internalType": "address[]",
          "name": "recipientAddresses",
          "type": "address[]"
        }
      ],
      "name": "registerRecipient",
      "outputs": [],
      "stateMutability": "nonpayable",
      "type": "function"
    },
    {
      "inputs": [],
      "name": "registerUser",
      "outputs": [],
      "stateMutability": "payable",
      "type": "function"
    },
    {
      "inputs": [
        {
          "internalType": "address",
          "name": "senderAddress",
          "type": "address"
        },
        {
          "internalType": "address",
          "name": "recipientAddress",
          "type": "address"
        },
        {
          "internalType": "bytes32",
          "name": "transactionHash",
          "type": "bytes32"
        },
        {
          "internalType": "uint256",
          "name": "amount",
          "type": "uint256"
        }
      ],
      "name": "remunerateVictim",
      "outputs": [],
      "stateMutability": "nonpayable",
      "type": "function"
    },
    {
      "inputs": [
        {
          "internalType": "address",
          "name": "",
          "type": "address"
        }
      ],
      "name": "users",
      "outputs": [
        {
          "internalType": "bool",
          "name": "exists",
          "type": "bool"
        },
        {
          "internalType": "uint256",
          "name": "collateralAmount",
          "type": "uint256"
        }
      ],
      "stateMutability": "view",
      "type": "function"
    }
  ],
  "bytecode": "0x6080604052670de0b6b3a7640000600155348015601b57600080fd5b50336000806101000a81548173ffffffffffffffffffffffffffffffffffffffff021916908373ffffffffffffffffffffffffffffffffffffffff1602179055506115d08061006b6000396000f3fe6080604052600436106100915760003560e01c806378f146a81161005957806378f146a81461015b578063839bd5b4146101655780638da5cb5b146101a2578063a87430ba146101cd578063eb8203121461020b57610091565b80634d3820eb14610096578063645006ca146100a05780636ce6849a146100cb5780636f08b7dd146100f45780637424c97214610132575b600080fd5b61009e610249565b005b3480156100ac57600080fd5b506100b56103fb565b6040516100c29190610d19565b60405180910390f35b3480156100d757600080fd5b506100f260048036038101906100ed9190610e08565b610401565b005b34801561010057600080fd5b5061011b60048036038101906101169190610e6f565b6108a0565b604051610129929190610eb7565b60405180910390f35b34801561013e57600080fd5b5061015960048036038101906101549190611039565b610928565b005b610163610af2565b005b34801561017157600080fd5b5061018c60048036038101906101879190611082565b610c5a565b60405161019991906110af565b60405180910390f35b3480156101ae57600080fd5b506101b7610c7a565b6040516101c491906110d9565b60405180910390f35b3480156101d957600080fd5b506101f460048036038101906101ef9190610e6f565b610c9e565b604051610202929190610eb7565b60405180910390f35b34801561021757600080fd5b50610232600480360381019061022d9190610e6f565b610ccf565b604051610240929190610eb7565b60405180910390f35b60015434101561028e576040517f08c379a000000000000000000000000000000000000000000000000000000000815260040161028590611151565b60405180910390fd5b600260003373ffffffffffffffffffffffffffffffffffffffff1673ffffffffffffffffffffffffffffffffffffffff16815260200190815260200160002060000160009054906101000a900460ff161561031e576040517f08c379a0000000000000000000000000000000000000000000000000000000008152600401610315906111bd565b60405180910390fd5b34600260003373ffffffffffffffffffffffffffffffffffffffff1673ffffffffffffffffffffffffffffffffffffffff168152602001908152602001600020600101819055506001600260003373ffffffffffffffffffffffffffffffffffffffff1673ffffffffffffffffffffffffffffffffffffffff16815260200190815260200160002060000160006101000a81548160ff0219169083151502179055507fe29d35093005f4d575e1003753426b57a7f64378ba73332eef9c6ccc2b8decd633346040516103f19291906111dd565b60405180910390a1565b60015481565b600360003373ffffffffffffffffffffffffffffffffffffffff1673ffffffffffffffffffffffffffffffffffffffff16815260200190815260200160002060000160009054906101000a900460ff16610490576040517f08c379a000000000000000000000000000000000000000000000000000000000815260040161048790611252565b60405180910390fd5b6004600083815260200190815260200160002060009054906101000a900460ff16156104f1576040517f08c379a00000000000000000000000000000000000000000000000000000000081526004016104e8906112be565b60405180910390fd5b3373ffffffffffffffffffffffffffffffffffffffff168373ffffffffffffffffffffffffffffffffffffffff161461055f576040517f08c379a000000000000000000000000000000000000000000000000000000000815260040161055690611252565b60405180910390fd5b600360008473ffffffffffffffffffffffffffffffffffffffff1673ffffffffffffffffffffffffffffffffffffffff16815260200190815260200160002060000160009054906101000a900460ff166105ee576040517f08c379a00000000000000000000000000000000000000000000000000000000081526004016105e590611252565b60405180910390fd5b600260008573ffffffffffffffffffffffffffffffffffffffff1673ffffffffffffffffffffffffffffffffffffffff16815260200190815260200160002060000160009054906101000a900460ff1661067d576040517f08c379a00000000000000000000000000000000000000000000000000000000081526004016106749061132a565b60405180910390fd5b80600260008673ffffffffffffffffffffffffffffffffffffffff1673ffffffffffffffffffffffffffffffffffffffff168152602001908152602001600020600101541015610702576040517f08c379a00000000000000000000000000000000000000000000000000000000081526004016106f990611396565b60405180910390fd5b80600260008673ffffffffffffffffffffffffffffffffffffffff1673ffffffffffffffffffffffffffffffffffffffff168152602001908152602001600020600101600082825461075491906113e5565b9250508190555060016004600084815260200190815260200160002060006101000a81548160ff02191690831515021790555060008373ffffffffffffffffffffffffffffffffffffffff16826040516107ad9061144a565b60006040518083038185875af1925050503d80600081146107ea576040519150601f19603f3d011682016040523d82523d6000602084013e6107ef565b606091505b5050905080610833576040517f08c379a000000000000000000000000000000000000000000000000000000000815260040161082a906114ab565b60405180910390fd5b8373ffffffffffffffffffffffffffffffffffffffff168573ffffffffffffffffffffffffffffffffffffffff16847fa45d92b7c2db38b7d282b251dfc4c97c20239bce7dc5c483e3b6a23e44a85538856040516108919190610d19565b60405180910390a45050505050565b600080600360008473ffffffffffffffffffffffffffffffffffffffff1673ffffffffffffffffffffffffffffffffffffffff16815260200190815260200160002060000160009054906101000a900460ff161561091b5760018373ffffffffffffffffffffffffffffffffffffffff163191509150610923565b600080915091505b915091565b60008054906101000a900473ffffffffffffffffffffffffffffffffffffffff1673ffffffffffffffffffffffffffffffffffffffff163373ffffffffffffffffffffffffffffffffffffffff16146109b6576040517f08c379a00000000000000000000000000000000000000000000000000000000081526004016109ad90611252565b60405180910390fd5b60005b8151811015610aee57600360008383815181106109d9576109d86114cb565b5b602002602001015173ffffffffffffffffffffffffffffffffffffffff1673ffffffffffffffffffffffffffffffffffffffff16815260200190815260200160002060000160009054906101000a900460ff1615610a6c576040517f08c379a0000000000000000000000000000000000000000000000000000000008152600401610a6390611546565b60405180910390fd5b600160036000848481518110610a8557610a846114cb565b5b602002602001015173ffffffffffffffffffffffffffffffffffffffff1673ffffffffffffffffffffffffffffffffffffffff16815260200190815260200160002060000160006101000a81548160ff02191690831515021790555080806001019150506109b9565b5050565b600260003373ffffffffffffffffffffffffffffffffffffffff1673ffffffffffffffffffffffffffffffffffffffff16815260200190815260200160002060000160009054906101000a900460ff16610b81576040517f08c379a0000000000000000000000000000000000000000000000000000000008152600401610b789061132a565b60405180910390fd5b600154341015610bc6576040517f08c379a0000000000000000000000000000000000000000000000000000000008152600401610bbd90611151565b60405180910390fd5b34600260003373ffffffffffffffffffffffffffffffffffffffff1673ffffffffffffffffffffffffffffffffffffffff1681526020019081526020016000206001016000828254610c189190611566565b925050819055507f8f193f79d8ed81180dd76e90fc0c99ea46d7ebebba5666a525e272fba4a134c53334604051610c509291906111dd565b60405180910390a1565b60046020528060005260406000206000915054906101000a900460ff1681565b60008054906101000a900473ffffffffffffffffffffffffffffffffffffffff1681565b60026020528060005260406000206000915090508060000160009054906101000a900460ff16908060010154905082565b60036020528060005260406000206000915090508060000160009054906101000a900460ff16908060010154905082565b6000819050919050565b610d1381610d00565b82525050565b6000602082019050610d2e6000830184610d0a565b92915050565b6000604051905090565b600080fd5b600080fd5b600073ffffffffffffffffffffffffffffffffffffffff82169050919050565b6000610d7382610d48565b9050919050565b610d8381610d68565b8114610d8e57600080fd5b50565b600081359050610da081610d7a565b92915050565b6000819050919050565b610db981610da6565b8114610dc457600080fd5b50565b600081359050610dd681610db0565b92915050565b610de581610d00565b8114610df057600080fd5b50565b600081359050610e0281610ddc565b92915050565b60008060008060808587031215610e2257610e21610d3e565b5b6000610e3087828801610d91565b9450506020610e4187828801610d91565b9350506040610e5287828801610dc7565b9250506060610e6387828801610df3565b91505092959194509250565b600060208284031215610e8557610e84610d3e565b5b6000610e9384828501610d91565b91505092915050565b60008115159050919050565b610eb181610e9c565b82525050565b6000604082019050610ecc6000830185610ea8565b610ed96020830184610d0a565b9392505050565b600080fd5b6000601f19601f8301169050919050565b7f4e487b7100000000000000000000000000000000000000000000000000000000600052604160045260246000fd5b610f2e82610ee5565b810181811067ffffffffffffffff82111715610f4d57610f4c610ef6565b5b80604052505050565b6000610f60610d34565b9050610f6c8282610f25565b919050565b600067ffffffffffffffff821115610f8c57610f8b610ef6565b5b602082029050602081019050919050565b600080fd5b6000610fb5610fb084610f71565b610f56565b90508083825260208201905060208402830185811115610fd857610fd7610f9d565b5b835b818110156110015780610fed8882610d91565b845260208401935050602081019050610fda565b5050509392505050565b600082601f8301126110205761101f610ee0565b5b8135611030848260208601610fa2565b91505092915050565b60006020828403121561104f5761104e610d3e565b5b600082013567ffffffffffffffff81111561106d5761106c610d43565b5b6110798482850161100b565b91505092915050565b60006020828403121561109857611097610d3e565b5b60006110a684828501610dc7565b91505092915050565b60006020820190506110c46000830184610ea8565b92915050565b6110d381610d68565b82525050565b60006020820190506110ee60008301846110ca565b92915050565b600082825260208201905092915050565b7f496e73756666696369656e742066756e64732100000000000000000000000000600082015250565b600061113b6013836110f4565b915061114682611105565b602082019050919050565b6000602082019050818103600083015261116a8161112e565b9050919050565b7f5573657220616c72656164792065786973747321000000000000000000000000600082015250565b60006111a76014836110f4565b91506111b282611171565b602082019050919050565b600060208201905081810360008301526111d68161119a565b9050919050565b60006040820190506111f260008301856110ca565b6111ff6020830184610d0a565b9392505050565b7f4163636573732044656e69656421000000000000000000000000000000000000600082015250565b600061123c600e836110f4565b915061124782611206565b602082019050919050565b6000602082019050818103600083015261126b8161122f565b9050919050565b7f5472616e73616374696f6e20616c72656164792070726f636573736564000000600082015250565b60006112a8601d836110f4565b91506112b382611272565b602082019050919050565b600060208201905081810360008301526112d78161129b565b9050919050565b7f55736572206e6f7420666f756e64210000000000000000000000000000000000600082015250565b6000611314600f836110f4565b915061131f826112de565b602082019050919050565b6000602082019050818103600083015261134381611307565b9050919050565b7f496e73756666696369656e7420636f6c6c61746572616c210000000000000000600082015250565b60006113806018836110f4565b915061138b8261134a565b602082019050919050565b600060208201905081810360008301526113af81611373565b9050919050565b7f4e487b7100000000000000000000000000000000000000000000000000000000600052601160045260246000fd5b60006113f082610d00565b91506113fb83610d00565b9250828203905081811115611413576114126113b6565b5b92915050565b600081905092915050565b50565b6000611434600083611419565b915061143f82611424565b600082019050919050565b600061145582611427565b9150819050919050565b7f5472616e73666572206661696c65640000000000000000000000000000000000600082015250565b6000611495600f836110f4565b91506114a08261145f565b602082019050919050565b600060208201905081810360008301526114c481611488565b9050919050565b7f4e487b7100000000000000000000000000000000000000000000000000000000600052603260045260246000fd5b7f526563697069656e7420616c7265616479206578697374732100000000000000600082015250565b60006115306019836110f4565b915061153b826114fa565b602082019050919050565b6000602082019050818103600083015261155f81611523565b9050919050565b600061157182610d00565b915061157c83610d00565b9250828201905080821115611594576115936113b6565b5b9291505056fea2646970667358221220ea099de7d3a2dc447e7560e13daf2dcd4da5d18a38b7fe4c1bdd472497db06c364736f6c634300081c0033",
  "linkReferences": {},
  "deployedLinkReferences": {}
}