{"abi":[{"type":"constructor","inputs":[],"stateMutability":"nonpayable"},{"type":"function","name":"addDepositUser","inputs":[],"outputs":[],"stateMutability":"payable"},{"type":"function","name":"isRecipientRegistered","inputs":[{"name":"recipientAddress","type":"address","internalType":"address"}],"outputs":[{"name":"","type":"bool","internalType":"bool"},{"name":"","type":"uint256","internalType":"uint256"}],"stateMutability":"view"},{"type":"function","name":"minDepositAmount","inputs":[],"outputs":[{"name":"","type":"uint256","internalType":"uint256"}],"stateMutability":"view"},{"type":"function","name":"owner","inputs":[],"outputs":[{"name":"","type":"address","internalType":"address"}],"stateMutability":"view"},{"type":"function","name":"processedFailedTransactions","inputs":[{"name":"","type":"bytes32","internalType":"bytes32"}],"outputs":[{"name":"","type":"bool","internalType":"bool"}],"stateMutability":"view"},{"type":"function","name":"recipients","inputs":[{"name":"","type":"address","internalType":"address"}],"outputs":[{"name":"exists","type":"bool","internalType":"bool"},{"name":"withdrawAmount","type":"uint256","internalType":"uint256"}],"stateMutability":"view"},{"type":"function","name":"registerRecipient","inputs":[{"name":"recipientAddresses","type":"address[]","internalType":"address[]"}],"outputs":[],"stateMutability":"nonpayable"},{"type":"function","name":"registerUser","inputs":[],"outputs":[],"stateMutability":"payable"},{"type":"function","name":"remunerateVictim","inputs":[{"name":"senderAddress","type":"address","internalType":"address"},{"name":"recipientAddress","type":"address","internalType":"address"},{"name":"transactionHash","type":"bytes32","internalType":"bytes32"},{"name":"amount","type":"uint256","internalType":"uint256"}],"outputs":[],"stateMutability":"nonpayable"},{"type":"function","name":"users","inputs":[{"name":"","type":"address","internalType":"address"}],"outputs":[{"name":"exists","type":"bool","internalType":"bool"},{"name":"collateralAmount","type":"uint256","internalType":"uint256"}],"stateMutability":"view"},{"type":"event","name":"RecipientRefunded","inputs":[{"name":"transactionHash","type":"bytes32","indexed":true,"internalType":"bytes32"},{"name":"sender","type":"address","indexed":true,"internalType":"address"},{"name":"recipient","type":"address","indexed":true,"internalType":"address"},{"name":"amount","type":"uint256","indexed":false,"internalType":"uint256"}],"anonymous":false},{"type":"event","name":"UserAddDeposit","inputs":[{"name":"_from","type":"address","indexed":false,"internalType":"address"},{"name":"_collateral","type":"uint256","indexed":false,"internalType":"uint256"}],"anonymous":false},{"type":"event","name":"UserRegistered","inputs":[{"name":"_from","type":"address","indexed":false,"internalType":"address"},{"name":"_collateral","type":"uint256","indexed":false,"internalType":"uint256"}],"anonymous":false}],"bytecode":{"object":"0x6080604052670de0b6b3a7640000600155348015601a575f5ffd5b50335f5f6101000a81548173ffffffffffffffffffffffffffffffffffffffff021916908373ffffffffffffffffffffffffffffffffffffffff16021790555061152b806100675f395ff3fe608060405260043610610090575f3560e01c806378f146a81161005857806378f146a814610155578063839bd5b41461015f5780638da5cb5b1461019b578063a87430ba146101c5578063eb8203121461020257610090565b80634d3820eb14610094578063645006ca1461009e5780636ce6849a146100c85780636f08b7dd146100f05780637424c9721461012d575b5f5ffd5b61009c61023f565b005b3480156100a9575f5ffd5b506100b26103e7565b6040516100bf9190610cc9565b60405180910390f35b3480156100d3575f5ffd5b506100ee60048036038101906100e99190610daa565b6103ed565b005b3480156100fb575f5ffd5b5061011660048036038101906101119190610e0e565b610871565b604051610124929190610e53565b60405180910390f35b348015610138575f5ffd5b50610153600480360381019061014e9190610fca565b6108f3565b005b61015d610ab7565b005b34801561016a575f5ffd5b5061018560048036038101906101809190611011565b610c18565b604051610192919061103c565b60405180910390f35b3480156101a6575f5ffd5b506101af610c35565b6040516101bc9190611064565b60405180910390f35b3480156101d0575f5ffd5b506101eb60048036038101906101e69190610e0e565b610c59565b6040516101f9929190610e53565b60405180910390f35b34801561020d575f5ffd5b5061022860048036038101906102239190610e0e565b610c85565b604051610236929190610e53565b60405180910390f35b600154341015610284576040517f08c379a000000000000000000000000000000000000000000000000000000000815260040161027b906110d7565b60405180910390fd5b60025f3373ffffffffffffffffffffffffffffffffffffffff1673ffffffffffffffffffffffffffffffffffffffff1681526020019081526020015f205f015f9054906101000a900460ff1615610310576040517f08c379a00000000000000000000000000000000000000000000000000000000081526004016103079061113f565b60405180910390fd5b3460025f3373ffffffffffffffffffffffffffffffffffffffff1673ffffffffffffffffffffffffffffffffffffffff1681526020019081526020015f2060010181905550600160025f3373ffffffffffffffffffffffffffffffffffffffff1673ffffffffffffffffffffffffffffffffffffffff1681526020019081526020015f205f015f6101000a81548160ff0219169083151502179055507fe29d35093005f4d575e1003753426b57a7f64378ba73332eef9c6ccc2b8decd633346040516103dd92919061115d565b60405180910390a1565b60015481565b60035f3373ffffffffffffffffffffffffffffffffffffffff1673ffffffffffffffffffffffffffffffffffffffff1681526020019081526020015f205f015f9054906101000a900460ff16610478576040517f08c379a000000000000000000000000000000000000000000000000000000000815260040161046f906111ce565b60405180910390fd5b60045f8381526020019081526020015f205f9054906101000a900460ff16156104d6576040517f08c379a00000000000000000000000000000000000000000000000000000000081526004016104cd90611236565b60405180910390fd5b3373ffffffffffffffffffffffffffffffffffffffff168373ffffffffffffffffffffffffffffffffffffffff1614610544576040517f08c379a000000000000000000000000000000000000000000000000000000000815260040161053b906111ce565b60405180910390fd5b60035f8473ffffffffffffffffffffffffffffffffffffffff1673ffffffffffffffffffffffffffffffffffffffff1681526020019081526020015f205f015f9054906101000a900460ff166105cf576040517f08c379a00000000000000000000000000000000000000000000000000000000081526004016105c6906111ce565b60405180910390fd5b60025f8573ffffffffffffffffffffffffffffffffffffffff1673ffffffffffffffffffffffffffffffffffffffff1681526020019081526020015f205f015f9054906101000a900460ff1661065a576040517f08c379a00000000000000000000000000000000000000000000000000000000081526004016106519061129e565b60405180910390fd5b8060025f8673ffffffffffffffffffffffffffffffffffffffff1673ffffffffffffffffffffffffffffffffffffffff1681526020019081526020015f206001015410156106dd576040517f08c379a00000000000000000000000000000000000000000000000000000000081526004016106d490611306565b60405180910390fd5b8060025f8673ffffffffffffffffffffffffffffffffffffffff1673ffffffffffffffffffffffffffffffffffffffff1681526020019081526020015f206001015f82825461072c9190611351565b92505081905550600160045f8481526020019081526020015f205f6101000a81548160ff0219169083151502179055505f8373ffffffffffffffffffffffffffffffffffffffff1682604051610781906113b1565b5f6040518083038185875af1925050503d805f81146107bb576040519150601f19603f3d011682016040523d82523d5f602084013e6107c0565b606091505b5050905080610804576040517f08c379a00000000000000000000000000000000000000000000000000000000081526004016107fb9061140f565b60405180910390fd5b8373ffffffffffffffffffffffffffffffffffffffff168573ffffffffffffffffffffffffffffffffffffffff16847fa45d92b7c2db38b7d282b251dfc4c97c20239bce7dc5c483e3b6a23e44a85538856040516108629190610cc9565b60405180910390a45050505050565b5f5f60035f8473ffffffffffffffffffffffffffffffffffffffff1673ffffffffffffffffffffffffffffffffffffffff1681526020019081526020015f205f015f9054906101000a900460ff16156108e75760018373ffffffffffffffffffffffffffffffffffffffff1631915091506108ee565b5f5f915091505b915091565b5f5f9054906101000a900473ffffffffffffffffffffffffffffffffffffffff1673ffffffffffffffffffffffffffffffffffffffff163373ffffffffffffffffffffffffffffffffffffffff1614610981576040517f08c379a0000000000000000000000000000000000000000000000000000000008152600401610978906111ce565b60405180910390fd5b5f5f90505b8151811015610ab35760035f8383815181106109a5576109a461142d565b5b602002602001015173ffffffffffffffffffffffffffffffffffffffff1673ffffffffffffffffffffffffffffffffffffffff1681526020019081526020015f205f015f9054906101000a900460ff1615610a35576040517f08c379a0000000000000000000000000000000000000000000000000000000008152600401610a2c906114a4565b60405180910390fd5b600160035f848481518110610a4d57610a4c61142d565b5b602002602001015173ffffffffffffffffffffffffffffffffffffffff1673ffffffffffffffffffffffffffffffffffffffff1681526020019081526020015f205f015f6101000a81548160ff0219169083151502179055508080600101915050610986565b5050565b60025f3373ffffffffffffffffffffffffffffffffffffffff1673ffffffffffffffffffffffffffffffffffffffff1681526020019081526020015f205f015f9054906101000a900460ff16610b42576040517f08c379a0000000000000000000000000000000000000000000000000000000008152600401610b399061129e565b60405180910390fd5b600154341015610b87576040517f08c379a0000000000000000000000000000000000000000000000000000000008152600401610b7e906110d7565b60405180910390fd5b3460025f3373ffffffffffffffffffffffffffffffffffffffff1673ffffffffffffffffffffffffffffffffffffffff1681526020019081526020015f206001015f828254610bd691906114c2565b925050819055507f8f193f79d8ed81180dd76e90fc0c99ea46d7ebebba5666a525e272fba4a134c53334604051610c0e92919061115d565b60405180910390a1565b6004602052805f5260405f205f915054906101000a900460ff1681565b5f5f9054906101000a900473ffffffffffffffffffffffffffffffffffffffff1681565b6002602052805f5260405f205f91509050805f015f9054906101000a900460ff16908060010154905082565b6003602052805f5260405f205f91509050805f015f9054906101000a900460ff16908060010154905082565b5f819050919050565b610cc381610cb1565b82525050565b5f602082019050610cdc5f830184610cba565b92915050565b5f604051905090565b5f5ffd5b5f5ffd5b5f73ffffffffffffffffffffffffffffffffffffffff82169050919050565b5f610d1c82610cf3565b9050919050565b610d2c81610d12565b8114610d36575f5ffd5b50565b5f81359050610d4781610d23565b92915050565b5f819050919050565b610d5f81610d4d565b8114610d69575f5ffd5b50565b5f81359050610d7a81610d56565b92915050565b610d8981610cb1565b8114610d93575f5ffd5b50565b5f81359050610da481610d80565b92915050565b5f5f5f5f60808587031215610dc257610dc1610ceb565b5b5f610dcf87828801610d39565b9450506020610de087828801610d39565b9350506040610df187828801610d6c565b9250506060610e0287828801610d96565b91505092959194509250565b5f60208284031215610e2357610e22610ceb565b5b5f610e3084828501610d39565b91505092915050565b5f8115159050919050565b610e4d81610e39565b82525050565b5f604082019050610e665f830185610e44565b610e736020830184610cba565b9392505050565b5f5ffd5b5f601f19601f8301169050919050565b7f4e487b71000000000000000000000000000000000000000000000000000000005f52604160045260245ffd5b610ec482610e7e565b810181811067ffffffffffffffff82111715610ee357610ee2610e8e565b5b80604052505050565b5f610ef5610ce2565b9050610f018282610ebb565b919050565b5f67ffffffffffffffff821115610f2057610f1f610e8e565b5b602082029050602081019050919050565b5f5ffd5b5f610f47610f4284610f06565b610eec565b90508083825260208201905060208402830185811115610f6a57610f69610f31565b5b835b81811015610f935780610f7f8882610d39565b845260208401935050602081019050610f6c565b5050509392505050565b5f82601f830112610fb157610fb0610e7a565b5b8135610fc1848260208601610f35565b91505092915050565b5f60208284031215610fdf57610fde610ceb565b5b5f82013567ffffffffffffffff811115610ffc57610ffb610cef565b5b61100884828501610f9d565b91505092915050565b5f6020828403121561102657611025610ceb565b5b5f61103384828501610d6c565b91505092915050565b5f60208201905061104f5f830184610e44565b92915050565b61105e81610d12565b82525050565b5f6020820190506110775f830184611055565b92915050565b5f82825260208201905092915050565b7f496e73756666696369656e742066756e647321000000000000000000000000005f82015250565b5f6110c160138361107d565b91506110cc8261108d565b602082019050919050565b5f6020820190508181035f8301526110ee816110b5565b9050919050565b7f5573657220616c726561647920657869737473210000000000000000000000005f82015250565b5f61112960148361107d565b9150611134826110f5565b602082019050919050565b5f6020820190508181035f8301526111568161111d565b9050919050565b5f6040820190506111705f830185611055565b61117d6020830184610cba565b9392505050565b7f4163636573732044656e696564210000000000000000000000000000000000005f82015250565b5f6111b8600e8361107d565b91506111c382611184565b602082019050919050565b5f6020820190508181035f8301526111e5816111ac565b9050919050565b7f5472616e73616374696f6e20616c72656164792070726f6365737365640000005f82015250565b5f611220601d8361107d565b915061122b826111ec565b602082019050919050565b5f6020820190508181035f83015261124d81611214565b9050919050565b7f55736572206e6f7420666f756e642100000000000000000000000000000000005f82015250565b5f611288600f8361107d565b915061129382611254565b602082019050919050565b5f6020820190508181035f8301526112b58161127c565b9050919050565b7f496e73756666696369656e7420636f6c6c61746572616c2100000000000000005f82015250565b5f6112f060188361107d565b91506112fb826112bc565b602082019050919050565b5f6020820190508181035f83015261131d816112e4565b9050919050565b7f4e487b71000000000000000000000000000000000000000000000000000000005f52601160045260245ffd5b5f61135b82610cb1565b915061136683610cb1565b925082820390508181111561137e5761137d611324565b5b92915050565b5f81905092915050565b50565b5f61139c5f83611384565b91506113a78261138e565b5f82019050919050565b5f6113bb82611391565b9150819050919050565b7f5472616e73666572206661696c656400000000000000000000000000000000005f82015250565b5f6113f9600f8361107d565b9150611404826113c5565b602082019050919050565b5f6020820190508181035f830152611426816113ed565b9050919050565b7f4e487b71000000000000000000000000000000000000000000000000000000005f52603260045260245ffd5b7f526563697069656e7420616c72656164792065786973747321000000000000005f82015250565b5f61148e60198361107d565b91506114998261145a565b602082019050919050565b5f6020820190508181035f8301526114bb81611482565b9050919050565b5f6114cc82610cb1565b91506114d783610cb1565b92508282019050808211156114ef576114ee611324565b5b9291505056fea26469706673582212204af3d21591e8df16e10bcfa61760fb0987087f743aee7ea84495ac134aa1358864736f6c634300081c0033","linkReferences":{}},"methodIdentifiers":{"addDepositUser()":"78f146a8","isRecipientRegistered(address)":"6f08b7dd","minDepositAmount()":"645006ca","owner()":"8da5cb5b","processedFailedTransactions(bytes32)":"839bd5b4","recipients(address)":"eb820312","registerRecipient(address[])":"7424c972","registerUser()":"4d3820eb","remunerateVictim(address,address,bytes32,uint256)":"6ce6849a","users(address)":"a87430ba"},"id":0}